S00B000050574D2E7372656325
S11300000C942A000C9434000C9434000C943400A6
S11300100C9434000C9434000C9434000C9434008C
S11300200C9434000C9434000C9434000C9434007C
S11300300C9434000C9434000C9434000C9434006C
S11300400C9434000C9434000C9434000C9434005C
S11300500C94340011241FBECFE5D8E0DEBFCDBF21
S11300600E943B000C945E000C94000083B78966E8
S113007083BFBB9A08950E9436009FEF88EC9CBF13
S11300802FEB37E249E0215030404040E1F700C017
S113009000008CBF2FE73AE146E021503040404059
S11300A0E1F700C000001CBE2FE33DE043E0215017
S11300B030404040E1F700C00000E1CFF894FFCFAA
S9030000FC
